{
  "address": "0xC8aD7cD4340A0FfE232e7Bd3C4A410555117934c",
  "abi": [
    {
      "inputs": [],
      "stateMutability": "nonpayable",
      "type": "constructor"
    },
    {
      "anonymous": false,
      "inputs": [
        {
          "indexed": false,
          "internalType": "address",
          "name": "_newOwner",
          "type": "address"
        },
        {
          "indexed": false,
          "internalType": "address",
          "name": "_contractAddy",
          "type": "address"
        },
        {
          "indexed": false,
          "internalType": "uint256",
          "name": "_tokenID",
          "type": "uint256"
        },
        {
          "indexed": false,
          "internalType": "uint256",
          "name": "_price",
          "type": "uint256"
        }
      ],
      "name": "PieceBought",
      "type": "event"
    },
    {
      "anonymous": false,
      "inputs": [
        {
          "indexed": false,
          "internalType": "address",
          "name": "_seller",
          "type": "address"
        },
        {
          "indexed": false,
          "internalType": "address",
          "name": "_contractAddy",
          "type": "address"
        },
        {
          "indexed": false,
          "internalType": "uint256",
          "name": "_tokenID",
          "type": "uint256"
        },
        {
          "indexed": false,
          "internalType": "uint256",
          "name": "_price",
          "type": "uint256"
        }
      ],
      "name": "PiecePublished",
      "type": "event"
    },
    {
      "inputs": [
        {
          "internalType": "uint256",
          "name": "",
          "type": "uint256"
        }
      ],
      "name": "allPieces",
      "outputs": [
        {
          "internalType": "uint256",
          "name": "pieceID",
          "type": "uint256"
        },
        {
          "internalType": "address",
          "name": "contractAddy",
          "type": "address"
        },
        {
          "internalType": "uint256",
          "name": "tokenID",
          "type": "uint256"
        },
        {
          "internalType": "uint256",
          "name": "price",
          "type": "uint256"
        },
        {
          "internalType": "address payable",
          "name": "seller",
          "type": "address"
        },
        {
          "internalType": "address payable",
          "name": "owner",
          "type": "address"
        },
        {
          "internalType": "bool",
          "name": "isSold",
          "type": "bool"
        }
      ],
      "stateMutability": "view",
      "type": "function"
    },
    {
      "inputs": [
        {
          "internalType": "uint256",
          "name": "_pieceID",
          "type": "uint256"
        }
      ],
      "name": "buyPiece",
      "outputs": [],
      "stateMutability": "payable",
      "type": "function"
    },
    {
      "inputs": [],
      "name": "getAllPiecesOnSale",
      "outputs": [
        {
          "components": [
            {
              "internalType": "uint256",
              "name": "pieceID",
              "type": "uint256"
            },
            {
              "internalType": "address",
              "name": "contractAddy",
              "type": "address"
            },
            {
              "internalType": "uint256",
              "name": "tokenID",
              "type": "uint256"
            },
            {
              "internalType": "uint256",
              "name": "price",
              "type": "uint256"
            },
            {
              "internalType": "address payable",
              "name": "seller",
              "type": "address"
            },
            {
              "internalType": "address payable",
              "name": "owner",
              "type": "address"
            },
            {
              "internalType": "bool",
              "name": "isSold",
              "type": "bool"
            }
          ],
          "internalType": "struct Bazaar.Piece[]",
          "name": "",
          "type": "tuple[]"
        }
      ],
      "stateMutability": "view",
      "type": "function"
    },
    {
      "inputs": [
        {
          "internalType": "address",
          "name": "_contractAddy",
          "type": "address"
        },
        {
          "internalType": "uint256",
          "name": "_tokenID",
          "type": "uint256"
        },
        {
          "internalType": "uint256",
          "name": "_price",
          "type": "uint256"
        }
      ],
      "name": "publishPiece",
      "outputs": [],
      "stateMutability": "payable",
      "type": "function"
    }
  ],
  "transactionHash": "0xfb49121461cb8f5bc209fd60fbd290ffad2a2e8de13470a9339f14be0a0f5259",
  "args": [],
  "numDeployments": 1,
  "solcInputHash": "ac4c7fd8b0f34f82ff047e493a63c056",
  "bytecode": "0x608060405234801561001057600080fd5b50336000806101000a81548173ffffffffffffffffffffffffffffffffffffffff021916908373ffffffffffffffffffffffffffffffffffffffff160217905550610f44806100606000396000f3fe60806040526004361061003f5760003560e01c80636129c53214610044578063ccdf3be614610087578063e3f85bd2146100b2578063e8ffaa8e146100ce575b600080fd5b34801561005057600080fd5b5061006b600480360381019061006691906109af565b6100ea565b60405161007e9796959493929190610c84565b60405180910390f35b34801561009357600080fd5b5061009c610199565b6040516100a99190610c02565b60405180910390f35b6100cc60048036038101906100c791906109af565b610429565b005b6100e860048036038101906100e39190610960565b61062b565b005b60046020528060005260406000206000915090508060000154908060010160009054906101000a900473ffffffffffffffffffffffffffffffffffffffff16908060020154908060030154908060040160009054906101000a900473ffffffffffffffffffffffffffffffffffffffff16908060050160009054906101000a900473ffffffffffffffffffffffffffffffffffffffff16908060050160149054906101000a900460ff16905087565b606060006101a76002610835565b67ffffffffffffffff8111156101e6577f4e487b7100000000000000000000000000000000000000000000000000000000600052604160045260246000fd5b60405190808252806020026020018201604052801561021f57816020015b61020c6108b5565b8152602001906001900390816102045790505b509050600080600190505b6102346001610835565b8111610420576004600082815260200190815260200160002060050160149054906101000a900460ff1661040f57600460008281526020019081526020016000206040518060e0016040529081600082015481526020016001820160009054906101000a900473ffffffffffffffffffffffffffffffffffffffff1673ffffffffffffffffffffffffffffffffffffffff1673ffffffffffffffffffffffffffffffffffffffff16815260200160028201548152602001600382015481526020016004820160009054906101000a900473ffffffffffffffffffffffffffffffffffffffff1673ffffffffffffffffffffffffffffffffffffffff1673ffffffffffffffffffffffffffffffffffffffff1681526020016005820160009054906101000a900473ffffffffffffffffffffffffffffffffffffffff1673ffffffffffffffffffffffffffffffffffffffff1673ffffffffffffffffffffffffffffffffffffffff1681526020016005820160149054906101000a900460ff1615151515815250508383815181106103f4577f4e487b7100000000000000000000000000000000000000000000000000000000600052603260045260246000fd5b602002602001018190525060018261040c9190610d3d565b91505b8061041990610ded565b905061022a565b50819250505090565b60006004600083815260200190815260200160002090508060030154341015610487576040517f08c379a000000000000000000000000000000000000000000000000000000000815260040161047e90610c64565b60405180910390fd5b600015158160050160149054906101000a900460ff161515146104df576040517f08c379a00000000000000000000000000000000000000000000000000000000081526004016104d690610c44565b60405180910390fd5b8060040160009054906101000a900473ffffffffffffffffffffffffffffffffffffffff1673ffffffffffffffffffffffffffffffffffffffff166108fc349081150290604051600060405180830381858888f19350505050158015610549573d6000803e3d6000fd5b50338160050160006101000a81548173ffffffffffffffffffffffffffffffffffffffff021916908373ffffffffffffffffffffffffffffffffffffffff16021790555060018160050160146101000a81548160ff0219169083151502179055507fdd8a548dffa38de01280fa8d41f597cffbf8e8be6347e80e6fdda1b34fa7ec6a338260010160009054906101000a900473ffffffffffffffffffffffffffffffffffffffff168360020154846003015460405161060b9493929190610bbd565b60405180910390a161061d6002610843565b610627600361089f565b5050565b610635600161089f565b61063f600261089f565b6040518060e001604052806106546001610835565b81526020018473ffffffffffffffffffffffffffffffffffffffff1681526020018381526020018281526020013373ffffffffffffffffffffffffffffffffffffffff168152602001600073ffffffffffffffffffffffffffffffffffffffff16815260200160001515815250600460006106cf6001610835565b81526020019081526020016000206000820151816000015560208201518160010160006101000a81548173ffffffffffffffffffffffffffffffffffffffff021916908373ffffffffffffffffffffffffffffffffffffffff160217905550604082015181600201556060820151816003015560808201518160040160006101000a81548173ffffffffffffffffffffffffffffffffffffffff021916908373ffffffffffffffffffffffffffffffffffffffff16021790555060a08201518160050160006101000a81548173ffffffffffffffffffffffffffffffffffffffff021916908373ffffffffffffffffffffffffffffffffffffffff16021790555060c08201518160050160146101000a81548160ff0219169083151502179055509050507f52399dca62f5f7496af07277c2607dc863fc37dfc1bd1234deedb6112b4572ae338484846040516108289493929190610bbd565b60405180910390a1505050565b600081600001549050919050565b6000816000015490506000811161088f576040517f08c379a000000000000000000000000000000000000000000000000000000000815260040161088690610c24565b60405180910390fd5b6001810382600001819055505050565b6001816000016000828254019250508190555050565b6040518060e0016040528060008152602001600073ffffffffffffffffffffffffffffffffffffffff1681526020016000815260200160008152602001600073ffffffffffffffffffffffffffffffffffffffff168152602001600073ffffffffffffffffffffffffffffffffffffffff1681526020016000151581525090565b60008135905061094581610ee0565b92915050565b60008135905061095a81610ef7565b92915050565b60008060006060848603121561097557600080fd5b600061098386828701610936565b93505060206109948682870161094b565b92505060406109a58682870161094b565b9150509250925092565b6000602082840312156109c157600080fd5b60006109cf8482850161094b565b91505092915050565b60006109e48383610b11565b60e08301905092915050565b6109f981610da5565b82525050565b610a0881610da5565b82525050565b610a1781610d93565b82525050565b610a2681610d93565b82525050565b6000610a3782610d03565b610a418185610d1b565b9350610a4c83610cf3565b8060005b83811015610a7d578151610a6488826109d8565b9750610a6f83610d0e565b925050600181019050610a50565b5085935050505092915050565b610a9381610db7565b82525050565b610aa281610db7565b82525050565b6000610ab5601b83610d2c565b9150610ac082610e65565b602082019050919050565b6000610ad8601983610d2c565b9150610ae382610e8e565b602082019050919050565b6000610afb601e83610d2c565b9150610b0682610eb7565b602082019050919050565b60e082016000820151610b276000850182610b9f565b506020820151610b3a6020850182610a0e565b506040820151610b4d6040850182610b9f565b506060820151610b606060850182610b9f565b506080820151610b7360808501826109f0565b5060a0820151610b8660a08501826109f0565b5060c0820151610b9960c0850182610a8a565b50505050565b610ba881610de3565b82525050565b610bb781610de3565b82525050565b6000608082019050610bd26000830187610a1d565b610bdf6020830186610a1d565b610bec6040830185610bae565b610bf96060830184610bae565b95945050505050565b60006020820190508181036000830152610c1c8184610a2c565b905092915050565b60006020820190508181036000830152610c3d81610aa8565b9050919050565b60006020820190508181036000830152610c5d81610acb565b9050919050565b60006020820190508181036000830152610c7d81610aee565b9050919050565b600060e082019050610c99600083018a610bae565b610ca66020830189610a1d565b610cb36040830188610bae565b610cc06060830187610bae565b610ccd60808301866109ff565b610cda60a08301856109ff565b610ce760c0830184610a99565b98975050505050505050565b6000819050602082019050919050565b600081519050919050565b6000602082019050919050565b600082825260208201905092915050565b600082825260208201905092915050565b6000610d4882610de3565b9150610d5383610de3565b9250827fffffffffffffffffffffffffffffffffffffffffffffffffffffffffffffffff03821115610d8857610d87610e36565b5b828201905092915050565b6000610d9e82610dc3565b9050919050565b6000610db082610dc3565b9050919050565b60008115159050919050565b600073ffffffffffffffffffffffffffffffffffffffff82169050919050565b6000819050919050565b6000610df882610de3565b91507fffffffffffffffffffffffffffffffffffffffffffffffffffffffffffffffff821415610e2b57610e2a610e36565b5b600182019050919050565b7f4e487b7100000000000000000000000000000000000000000000000000000000600052601160045260246000fd5b7f436f756e7465723a2064656372656d656e74206f766572666c6f770000000000600082015250565b7f54686973204e4654206973206e6f7420666f722073616c652100000000000000600082015250565b7f4e6f7420656e6f7567682045544820746f20636f6d706c657465207478210000600082015250565b610ee981610d93565b8114610ef457600080fd5b50565b610f0081610de3565b8114610f0b57600080fd5b5056fea2646970667358221220e3b877add9713f347d38072dd72f2ae60bb1fc0c43da00bfb53b6bd5eadb6b4764736f6c63430008040033",
  "devdoc": {
    "kind": "dev",
    "methods": {},
    "version": 1
  },
  "userdoc": {
    "kind": "user",
    "methods": {},
    "version": 1
  },
  "storageLayout": {
    "storage": [
      {
        "astId": 83,
        "contract": "contracts/Bazaar.sol:Bazaar",
        "label": "bazaarOwner",
        "offset": 0,
        "slot": "0",
        "type": "t_address"
      },
      {
        "astId": 86,
        "contract": "contracts/Bazaar.sol:Bazaar",
        "label": "pieceCount",
        "offset": 0,
        "slot": "1",
        "type": "t_struct(Counter)5_storage"
      },
      {
        "astId": 89,
        "contract": "contracts/Bazaar.sol:Bazaar",
        "label": "onSalePieceCount",
        "offset": 0,
        "slot": "2",
        "type": "t_struct(Counter)5_storage"
      },
      {
        "astId": 92,
        "contract": "contracts/Bazaar.sol:Bazaar",
        "label": "soldPieceCount",
        "offset": 0,
        "slot": "3",
        "type": "t_struct(Counter)5_storage"
      },
      {
        "astId": 112,
        "contract": "contracts/Bazaar.sol:Bazaar",
        "label": "allPieces",
        "offset": 0,
        "slot": "4",
        "type": "t_mapping(t_uint256,t_struct(Piece)107_storage)"
      }
    ],
    "types": {
      "t_address": {
        "encoding": "inplace",
        "label": "address",
        "numberOfBytes": "20"
      },
      "t_address_payable": {
        "encoding": "inplace",
        "label": "address payable",
        "numberOfBytes": "20"
      },
      "t_bool": {
        "encoding": "inplace",
        "label": "bool",
        "numberOfBytes": "1"
      },
      "t_mapping(t_uint256,t_struct(Piece)107_storage)": {
        "encoding": "mapping",
        "key": "t_uint256",
        "label": "mapping(uint256 => struct Bazaar.Piece)",
        "numberOfBytes": "32",
        "value": "t_struct(Piece)107_storage"
      },
      "t_struct(Counter)5_storage": {
        "encoding": "inplace",
        "label": "struct Counters.Counter",
        "members": [
          {
            "astId": 4,
            "contract": "contracts/Bazaar.sol:Bazaar",
            "label": "_value",
            "offset": 0,
            "slot": "0",
            "type": "t_uint256"
          }
        ],
        "numberOfBytes": "32"
      },
      "t_struct(Piece)107_storage": {
        "encoding": "inplace",
        "label": "struct Bazaar.Piece",
        "members": [
          {
            "astId": 94,
            "contract": "contracts/Bazaar.sol:Bazaar",
            "label": "pieceID",
            "offset": 0,
            "slot": "0",
            "type": "t_uint256"
          },
          {
            "astId": 96,
            "contract": "contracts/Bazaar.sol:Bazaar",
            "label": "contractAddy",
            "offset": 0,
            "slot": "1",
            "type": "t_address"
          },
          {
            "astId": 98,
            "contract": "contracts/Bazaar.sol:Bazaar",
            "label": "tokenID",
            "offset": 0,
            "slot": "2",
            "type": "t_uint256"
          },
          {
            "astId": 100,
            "contract": "contracts/Bazaar.sol:Bazaar",
            "label": "price",
            "offset": 0,
            "slot": "3",
            "type": "t_uint256"
          },
          {
            "astId": 102,
            "contract": "contracts/Bazaar.sol:Bazaar",
            "label": "seller",
            "offset": 0,
            "slot": "4",
            "type": "t_address_payable"
          },
          {
            "astId": 104,
            "contract": "contracts/Bazaar.sol:Bazaar",
            "label": "owner",
            "offset": 0,
            "slot": "5",
            "type": "t_address_payable"
          },
          {
            "astId": 106,
            "contract": "contracts/Bazaar.sol:Bazaar",
            "label": "isSold",
            "offset": 20,
            "slot": "5",
            "type": "t_bool"
          }
        ],
        "numberOfBytes": "192"
      },
      "t_uint256": {
        "encoding": "inplace",
        "label": "uint256",
        "numberOfBytes": "32"
      }
    }
  }
}